{
  "contractName": "Token",
  "abi": [
    {
      "inputs": [],
      "stateMutability": "nonpayable",
      "type": "constructor"
    },
    {
      "inputs": [],
      "name": "totalSupply",
      "outputs": [
        {
          "internalType": "uint256",
          "name": "",
          "type": "uint256"
        }
      ],
      "stateMutability": "view",
      "type": "function",
      "constant": true
    }
  ],
  "bytecode": "0x608060405234801561001057600080fd5b50620f424060008190555060b3806100296000396000f3fe6080604052348015600f57600080fd5b506004361060285760003560e01c806318160ddd14602d575b600080fd5b60336047565b604051603e91906064565b60405180910390f35b60005481565b6000819050919050565b605e81604d565b82525050565b6000602082019050607760008301846057565b9291505056fea2646970667358221220ef6e01180064e9e0125bc5f727737745f0c52e0473597fddee518c832346206964736f6c634300080d0033",
  "immutableReferences": {},
  "source": "// SPDX-License-Identifier: MIT\npragma solidity >=0.4.22 <0.9.0;\n\n//Token contract to initializing ERC20 standard\ncontract Token {\n    //Variable declaration (type, visibility, name)\n    uint256 public totalSupply;\n\n    //Contructor function -> automatically runs when the contract is deployed\n    constructor() {\n        //State variable accessible to the entire contract\n        //writes to contract \"STORAGE\" which persist for the contracts lifecycle\n        totalSupply = 1000000;\n    }\n    //Set total Number of tokens\n    //Read total number of tokens\n}\n",
  "sourcePath": "/Users/tristanjoynes/Desktop/solidity-eth/token-contract/contracts/Token.sol",
  "compiler": {
    "name": "solc",
    "version": "0.8.13+commit.abaa5c0e.Emscripten.clang"
  },
  "schemaVersion": "3.4.6",
  "updatedAt": "2022-03-30T20:20:57.470Z",
  "networkType": "ethereum",
  "devdoc": {
    "kind": "dev",
    "methods": {},
    "version": 1
  },
  "userdoc": {
    "kind": "user",
    "methods": {},
    "version": 1
  }
}